{
  "_format": "hh-sol-artifact-1",
  "contractName": "BabyNFT",
  "sourceName": "contracts/BabyNFT.sol",
  "abi": [
    {
      "inputs": [
        {
          "internalType": "enum BabyNFT.Class",
          "name": "class",
          "type": "uint8"
        }
      ],
      "name": "createChar",
      "outputs": [],
      "stateMutability": "payable",
      "type": "function"
    },
    {
      "inputs": [],
      "name": "generateRandom",
      "outputs": [
        {
          "internalType": "uint256",
          "name": "",
          "type": "uint256"
        }
      ],
      "stateMutability": "view",
      "type": "function"
    },
    {
      "inputs": [],
      "name": "getChars",
      "outputs": [
        {
          "internalType": "uint256[]",
          "name": "",
          "type": "uint256[]"
        }
      ],
      "stateMutability": "view",
      "type": "function"
    },
    {
      "inputs": [
        {
          "internalType": "uint256",
          "name": "char",
          "type": "uint256"
        }
      ],
      "name": "getCoolness",
      "outputs": [
        {
          "internalType": "uint32",
          "name": "",
          "type": "uint32"
        }
      ],
      "stateMutability": "pure",
      "type": "function"
    },
    {
      "inputs": [
        {
          "internalType": "uint256",
          "name": "char",
          "type": "uint256"
        }
      ],
      "name": "getGreed",
      "outputs": [
        {
          "internalType": "uint32",
          "name": "",
          "type": "uint32"
        }
      ],
      "stateMutability": "pure",
      "type": "function"
    },
    {
      "inputs": [
        {
          "internalType": "uint256",
          "name": "char",
          "type": "uint256"
        }
      ],
      "name": "getSexAppeal",
      "outputs": [
        {
          "internalType": "uint32",
          "name": "",
          "type": "uint32"
        }
      ],
      "stateMutability": "pure",
      "type": "function"
    },
    {
      "inputs": [
        {
          "internalType": "uint256",
          "name": "char",
          "type": "uint256"
        }
      ],
      "name": "getUmfh",
      "outputs": [
        {
          "internalType": "uint32",
          "name": "",
          "type": "uint32"
        }
      ],
      "stateMutability": "pure",
      "type": "function"
    },
    {
      "inputs": [
        {
          "internalType": "uint256",
          "name": "char",
          "type": "uint256"
        }
      ],
      "name": "getWeirdness",
      "outputs": [
        {
          "internalType": "uint32",
          "name": "",
          "type": "uint32"
        }
      ],
      "stateMutability": "pure",
      "type": "function"
    }
  ],
  "bytecode": "0x608060405234801561001057600080fd5b50610a5f806100206000396000f3fe60806040526004361061007b5760003560e01c8063b8860c891161004e578063b8860c8914610150578063d243ddaf1461018d578063d35c2108146101ca578063e966c7d0146101e65761007b565b806302e4af011461008057806347327ae3146100ab5780637010e874146100e8578063b3c5d0ff14610113575b600080fd5b34801561008c57600080fd5b50610095610223565b6040516100a291906105de565b60405180910390f35b3480156100b757600080fd5b506100d260048036038101906100cd919061062a565b610256565b6040516100df9190610676565b60405180910390f35b3480156100f457600080fd5b506100fd610267565b60405161010a919061074f565b60405180910390f35b34801561011f57600080fd5b5061013a6004803603810190610135919061062a565b6102fb565b6040516101479190610676565b60405180910390f35b34801561015c57600080fd5b506101776004803603810190610172919061062a565b61030c565b6040516101849190610676565b60405180910390f35b34801561019957600080fd5b506101b460048036038101906101af919061062a565b61031d565b6040516101c19190610676565b60405180910390f35b6101e460048036038101906101df9190610796565b61032e565b005b3480156101f257600080fd5b5061020d6004803603810190610208919061062a565b6105b4565b60405161021a9190610676565b60405180910390f35b600044426040516020016102389291906107e4565b6040516020818303038152906040528051906020012060001c905090565b6000601f600283901c169050919050565b60606000803373ffffffffffffffffffffffffffffffffffffffff1673ffffffffffffffffffffffffffffffffffffffff1681526020019081526020016000208054806020026020016040519081016040528092919081815260200182805480156102f157602002820191906000526020600020905b8154815260200190600101908083116102dd575b5050505050905090565b6000601f600c83901c169050919050565b6000601f600783901c169050919050565b6000601f601183901c169050919050565b6709935f581f050000341015610379576040517f08c379a00000000000000000000000000000000000000000000000000000000081526004016103709061086d565b60405180910390fd5b6000600567ffffffffffffffff8111156103965761039561088d565b5b6040519080825280602002602001820160405280156103c45781602001602082028036833780820191505090505b5090506002816000815181106103dd576103dc6108bc565b5b6020026020010181815250506007816001815181106103ff576103fe6108bc565b5b602002602001018181525050600c81600281518110610421576104206108bc565b5b602002602001018181525050601181600381518110610443576104426108bc565b5b602002602001018181525050601681600481518110610465576104646108bc565b5b602002602001018181525050600060059050600083600281111561048c5761048b6108eb565b5b90505b60008261049a610223565b6104a49190610949565b90506000600184600d6104b791906109a9565b6104bf610223565b6104c99190610949565b6104d391906109a9565b90508482815181106104e8576104e76108bc565b5b602002602001015181901b831792508380610502906109ff565b945050848481518110610518576105176108bc565b5b6020026020010151858381518110610533576105326108bc565b5b60200260200101818152505050506000821161048f576000803373ffffffffffffffffffffffffffffffffffffffff1673ffffffffffffffffffffffffffffffffffffffff16815260200190815260200160002081908060018154018082558091505060019003906000526020600020016000909190919091505550505050565b6000601f601683901c169050919050565b6000819050919050565b6105d8816105c5565b82525050565b60006020820190506105f360008301846105cf565b92915050565b600080fd5b610607816105c5565b811461061257600080fd5b50565b600081359050610624816105fe565b92915050565b6000602082840312156106405761063f6105f9565b5b600061064e84828501610615565b91505092915050565b600063ffffffff82169050919050565b61067081610657565b82525050565b600060208201905061068b6000830184610667565b92915050565b600081519050919050565b600082825260208201905092915050565b6000819050602082019050919050565b6106c6816105c5565b82525050565b60006106d883836106bd565b60208301905092915050565b6000602082019050919050565b60006106fc82610691565b610706818561069c565b9350610711836106ad565b8060005b8381101561074257815161072988826106cc565b9750610734836106e4565b925050600181019050610715565b5085935050505092915050565b6000602082019050818103600083015261076981846106f1565b905092915050565b6003811061077e57600080fd5b50565b60008135905061079081610771565b92915050565b6000602082840312156107ac576107ab6105f9565b5b60006107ba84828501610781565b91505092915050565b6000819050919050565b6107de6107d9826105c5565b6107c3565b82525050565b60006107f082856107cd565b60208201915061080082846107cd565b6020820191508190509392505050565b600082825260208201905092915050565b7f53656e64206d6f7265206d6f6e6579202c206269746368000000000000000000600082015250565b6000610857601783610810565b915061086282610821565b602082019050919050565b600060208201905081810360008301526108868161084a565b9050919050565b7f4e487b7100000000000000000000000000000000000000000000000000000000600052604160045260246000fd5b7f4e487b7100000000000000000000000000000000000000000000000000000000600052603260045260246000fd5b7f4e487b7100000000000000000000000000000000000000000000000000000000600052602160045260246000fd5b7f4e487b7100000000000000000000000000000000000000000000000000000000600052601260045260246000fd5b6000610954826105c5565b915061095f836105c5565b92508261096f5761096e61091a565b5b828206905092915050565b7f4e487b7100000000000000000000000000000000000000000000000000000000600052601160045260246000fd5b60006109b4826105c5565b91506109bf836105c5565b9250827fffffffffffffffffffffffffffffffffffffffffffffffffffffffffffffffff038211156109f4576109f361097a565b5b828201905092915050565b6000610a0a826105c5565b91506000821415610a1e57610a1d61097a565b5b60018203905091905056fea26469706673582212200dd2a75f5135ad5c43c3edf87d97ad05a8b40a420b465f8a7b8e8f94f6949a5564736f6c634300080a0033",
  "linkReferences": {},
  "deployedLinkReferences": {}
}