{
  "_format": "hh-sol-artifact-1",
  "contractName": "BabyNFT",
  "sourceName": "contracts/BabyNFT.sol",
  "abi": [
    {
      "inputs": [
        {
          "internalType": "enum BabyNFT.Class",
          "name": "class",
          "type": "uint8"
        }
      ],
      "name": "createChar",
      "outputs": [],
      "stateMutability": "payable",
      "type": "function"
    },
    {
      "inputs": [],
      "name": "getChars",
      "outputs": [
        {
          "internalType": "uint256[]",
          "name": "",
          "type": "uint256[]"
        }
      ],
      "stateMutability": "view",
      "type": "function"
    }
  ],
  "bytecode": "0x608060405234801561001057600080fd5b5061034a806100206000396000f3fe6080604052600436106100295760003560e01c80637010e8741461002e578063d35c210814610059575b600080fd5b34801561003a57600080fd5b50610043610075565b604051610050919061021e565b60405180910390f35b610073600480360381019061006e919061026a565b610109565b005b60606000803373ffffffffffffffffffffffffffffffffffffffff1673ffffffffffffffffffffffffffffffffffffffff1681526020019081526020016000208054806020026020016040519081016040528092919081815260200182805480156100ff57602002820191906000526020600020905b8154815260200190600101908083116100eb575b5050505050905090565b66b1a2bc2ec50000341015610153576040517f08c379a000000000000000000000000000000000000000000000000000000000815260040161014a906102f4565b60405180910390fd5b50565b600081519050919050565b600082825260208201905092915050565b6000819050602082019050919050565b6000819050919050565b61019581610182565b82525050565b60006101a7838361018c565b60208301905092915050565b6000602082019050919050565b60006101cb82610156565b6101d58185610161565b93506101e083610172565b8060005b838110156102115781516101f8888261019b565b9750610203836101b3565b9250506001810190506101e4565b5085935050505092915050565b6000602082019050818103600083015261023881846101c0565b905092915050565b600080fd5b6003811061025257600080fd5b50565b60008135905061026481610245565b92915050565b6000602082840312156102805761027f610240565b5b600061028e84828501610255565b91505092915050565b600082825260208201905092915050565b7f53656e64206d6f7265206d6f6e6579202c206269746368000000000000000000600082015250565b60006102de601783610297565b91506102e9826102a8565b602082019050919050565b6000602082019050818103600083015261030d816102d1565b905091905056fea2646970667358221220e0e90c7d513e4ad4cea2ccf72d60ef9e24fff8fae569e24984eac74ac50690ab64736f6c634300080a0033",
  "linkReferences": {},
  "deployedLinkReferences": {}
}