{
  "_format": "hh-sol-artifact-1",
  "contractName": "BabyNFT",
  "sourceName": "contracts/BabyNFT.sol",
  "abi": [
    {
      "inputs": [
        {
          "internalType": "enum BabyNFT.Peeps",
          "name": "class",
          "type": "uint8"
        }
      ],
      "name": "createChar",
      "outputs": [],
      "stateMutability": "payable",
      "type": "function"
    },
    {
      "inputs": [],
      "name": "generateRandom",
      "outputs": [
        {
          "internalType": "uint256",
          "name": "",
          "type": "uint256"
        }
      ],
      "stateMutability": "view",
      "type": "function"
    },
    {
      "inputs": [],
      "name": "getChars",
      "outputs": [
        {
          "internalType": "uint256[]",
          "name": "",
          "type": "uint256[]"
        }
      ],
      "stateMutability": "view",
      "type": "function"
    },
    {
      "inputs": [
        {
          "internalType": "uint256",
          "name": "char",
          "type": "uint256"
        }
      ],
      "name": "getCoolness",
      "outputs": [
        {
          "internalType": "uint32",
          "name": "",
          "type": "uint32"
        }
      ],
      "stateMutability": "pure",
      "type": "function"
    },
    {
      "inputs": [
        {
          "internalType": "uint256",
          "name": "char",
          "type": "uint256"
        }
      ],
      "name": "getGreed",
      "outputs": [
        {
          "internalType": "uint32",
          "name": "",
          "type": "uint32"
        }
      ],
      "stateMutability": "pure",
      "type": "function"
    },
    {
      "inputs": [
        {
          "internalType": "uint256",
          "name": "char",
          "type": "uint256"
        }
      ],
      "name": "getSexAppeal",
      "outputs": [
        {
          "internalType": "uint32",
          "name": "",
          "type": "uint32"
        }
      ],
      "stateMutability": "pure",
      "type": "function"
    },
    {
      "inputs": [
        {
          "internalType": "uint256",
          "name": "char",
          "type": "uint256"
        }
      ],
      "name": "getUmfh",
      "outputs": [
        {
          "internalType": "uint32",
          "name": "",
          "type": "uint32"
        }
      ],
      "stateMutability": "pure",
      "type": "function"
    },
    {
      "inputs": [
        {
          "internalType": "uint256",
          "name": "char",
          "type": "uint256"
        }
      ],
      "name": "getWeirdness",
      "outputs": [
        {
          "internalType": "uint32",
          "name": "",
          "type": "uint32"
        }
      ],
      "stateMutability": "pure",
      "type": "function"
    }
  ],
  "bytecode": "0x608060405234801561001057600080fd5b50610b30806100206000396000f3fe60806040526004361061007b5760003560e01c8063b8860c891161004e578063b8860c8914610150578063d243ddaf1461018d578063d35c2108146101ca578063e966c7d0146101e65761007b565b806302e4af011461008057806347327ae3146100ab5780637010e874146100e8578063b3c5d0ff14610113575b600080fd5b34801561008c57600080fd5b50610095610223565b6040516100a29190610643565b60405180910390f35b3480156100b757600080fd5b506100d260048036038101906100cd919061068f565b610256565b6040516100df91906106db565b60405180910390f35b3480156100f457600080fd5b506100fd610267565b60405161010a91906107b4565b60405180910390f35b34801561011f57600080fd5b5061013a6004803603810190610135919061068f565b6102fb565b60405161014791906106db565b60405180910390f35b34801561015c57600080fd5b506101776004803603810190610172919061068f565b61030c565b60405161018491906106db565b60405180910390f35b34801561019957600080fd5b506101b460048036038101906101af919061068f565b61031d565b6040516101c191906106db565b60405180910390f35b6101e460048036038101906101df91906107fb565b61032e565b005b3480156101f257600080fd5b5061020d6004803603810190610208919061068f565b610619565b60405161021a91906106db565b60405180910390f35b60004442604051602001610238929190610849565b6040516020818303038152906040528051906020012060001c905090565b6000601f600283901c169050919050565b60606000803373ffffffffffffffffffffffffffffffffffffffff1673ffffffffffffffffffffffffffffffffffffffff1681526020019081526020016000208054806020026020016040519081016040528092919081815260200182805480156102f157602002820191906000526020600020905b8154815260200190600101908083116102dd575b5050505050905090565b6000601f600c83901c169050919050565b6000601f600783901c169050919050565b6000601f601183901c169050919050565b66b1a2bc2ec500003411610377576040517f08c379a000000000000000000000000000000000000000000000000000000000815260040161036e906108d2565b60405180910390fd5b600181600281111561038c5761038b6108f2565b5b14156103de576709935f581f0500003410156103dd576040517f08c379a00000000000000000000000000000000000000000000000000000000081526004016103d49061096d565b60405180910390fd5b5b6000600567ffffffffffffffff8111156103fb576103fa61098d565b5b6040519080825280602002602001820160405280156104295781602001602082028036833780820191505090505b509050600281600081518110610442576104416109bc565b5b602002602001018181525050600781600181518110610464576104636109bc565b5b602002602001018181525050600c81600281518110610486576104856109bc565b5b6020026020010181815250506011816003815181106104a8576104a76109bc565b5b6020026020010181815250506016816004815181106104ca576104c96109bc565b5b60200260200101818152505060006005905060008360028111156104f1576104f06108f2565b5b90505b6000826104ff610223565b6105099190610a1a565b90506000600184600d61051c9190610a7a565b610524610223565b61052e9190610a1a565b6105389190610a7a565b905084828151811061054d5761054c6109bc565b5b602002602001015181901b83179250838061056790610ad0565b94505084848151811061057d5761057c6109bc565b5b6020026020010151858381518110610598576105976109bc565b5b6020026020010181815250505050600082116104f4576000803373ffffffffffffffffffffffffffffffffffffffff1673ffffffffffffffffffffffffffffffffffffffff16815260200190815260200160002081908060018154018082558091505060019003906000526020600020016000909190919091505550505050565b6000601f601683901c169050919050565b6000819050919050565b61063d8161062a565b82525050565b60006020820190506106586000830184610634565b92915050565b600080fd5b61066c8161062a565b811461067757600080fd5b50565b60008135905061068981610663565b92915050565b6000602082840312156106a5576106a461065e565b5b60006106b38482850161067a565b91505092915050565b600063ffffffff82169050919050565b6106d5816106bc565b82525050565b60006020820190506106f060008301846106cc565b92915050565b600081519050919050565b600082825260208201905092915050565b6000819050602082019050919050565b61072b8161062a565b82525050565b600061073d8383610722565b60208301905092915050565b6000602082019050919050565b6000610761826106f6565b61076b8185610701565b935061077683610712565b8060005b838110156107a757815161078e8882610731565b975061079983610749565b92505060018101905061077a565b5085935050505092915050565b600060208201905081810360008301526107ce8184610756565b905092915050565b600381106107e357600080fd5b50565b6000813590506107f5816107d6565b92915050565b6000602082840312156108115761081061065e565b5b600061081f848285016107e6565b91505092915050565b6000819050919050565b61084361083e8261062a565b610828565b82525050565b60006108558285610832565b6020820191506108658284610832565b6020820191508190509392505050565b600082825260208201905092915050565b7f53656e64206d6f7265206d6f6e6579202c206269746368000000000000000000600082015250565b60006108bc601783610875565b91506108c782610886565b602082019050919050565b600060208201905081810360008301526108eb816108af565b9050919050565b7f4e487b7100000000000000000000000000000000000000000000000000000000600052602160045260246000fd5b7f5265616c6c79204d6174657269616c204777726f6c3f00000000000000000000600082015250565b6000610957601683610875565b915061096282610921565b602082019050919050565b600060208201905081810360008301526109868161094a565b9050919050565b7f4e487b7100000000000000000000000000000000000000000000000000000000600052604160045260246000fd5b7f4e487b7100000000000000000000000000000000000000000000000000000000600052603260045260246000fd5b7f4e487b7100000000000000000000000000000000000000000000000000000000600052601260045260246000fd5b6000610a258261062a565b9150610a308361062a565b925082610a4057610a3f6109eb565b5b828206905092915050565b7f4e487b7100000000000000000000000000000000000000000000000000000000600052601160045260246000fd5b6000610a858261062a565b9150610a908361062a565b9250827fffffffffffffffffffffffffffffffffffffffffffffffffffffffffffffffff03821115610ac557610ac4610a4b565b5b828201905092915050565b6000610adb8261062a565b91506000821415610aef57610aee610a4b565b5b60018203905091905056fea26469706673582212206bbd31a61b9b720331b9350a1000688f7952807ec77865beb0a4e1205e2f1a3264736f6c634300080a0033",
  "linkReferences": {},
  "deployedLinkReferences": {}
}