{
  "_format": "hh-sol-artifact-1",
  "contractName": "BabyNFT",
  "sourceName": "contracts/BabyNFT.sol",
  "abi": [
    {
      "inputs": [
        {
          "internalType": "enum BabyNFT.Class",
          "name": "class",
          "type": "uint8"
        }
      ],
      "name": "createChar",
      "outputs": [],
      "stateMutability": "payable",
      "type": "function"
    }
  ],
  "bytecode": "0x608060405234801561001057600080fd5b50610196806100206000396000f3fe60806040526004361061001e5760003560e01c8063d35c210814610023575b600080fd5b61003d600480360381019061003891906100b6565b61003f565b005b66b1a2bc2ec50000341015610089576040517f08c379a000000000000000000000000000000000000000000000000000000000815260040161008090610140565b60405180910390fd5b50565b600080fd5b6003811061009e57600080fd5b50565b6000813590506100b081610091565b92915050565b6000602082840312156100cc576100cb61008c565b5b60006100da848285016100a1565b91505092915050565b600082825260208201905092915050565b7f506c656173652073656e64206d6f7265206d6f6e6579202c2062697463680000600082015250565b600061012a601e836100e3565b9150610135826100f4565b602082019050919050565b600060208201905081810360008301526101598161011d565b905091905056fea2646970667358221220c542e391abe3709b5375d1fc9ae79fac43ac17b7508b0db5ee5b019e01d124c964736f6c634300080a0033",
  "linkReferences": {},
  "deployedLinkReferences": {}
}