{
  "_format": "hh-sol-artifact-1",
  "contractName": "TestBabyNFT",
  "sourceName": "contracts/TestBNFT.sol",
  "abi": [
    {
      "inputs": [
        {
          "internalType": "enum BabyNFT.Peeps",
          "name": "class",
          "type": "uint8"
        }
      ],
      "name": "createChar",
      "outputs": [],
      "stateMutability": "payable",
      "type": "function"
    },
    {
      "inputs": [],
      "name": "generateRandom",
      "outputs": [
        {
          "internalType": "uint256",
          "name": "",
          "type": "uint256"
        }
      ],
      "stateMutability": "view",
      "type": "function"
    },
    {
      "inputs": [],
      "name": "getChars",
      "outputs": [
        {
          "internalType": "uint256[]",
          "name": "",
          "type": "uint256[]"
        }
      ],
      "stateMutability": "view",
      "type": "function"
    },
    {
      "inputs": [
        {
          "internalType": "uint256",
          "name": "char",
          "type": "uint256"
        }
      ],
      "name": "getCoolness",
      "outputs": [
        {
          "internalType": "uint32",
          "name": "",
          "type": "uint32"
        }
      ],
      "stateMutability": "pure",
      "type": "function"
    },
    {
      "inputs": [
        {
          "internalType": "uint256",
          "name": "char",
          "type": "uint256"
        }
      ],
      "name": "getGreed",
      "outputs": [
        {
          "internalType": "uint32",
          "name": "",
          "type": "uint32"
        }
      ],
      "stateMutability": "pure",
      "type": "function"
    },
    {
      "inputs": [
        {
          "internalType": "uint256",
          "name": "char",
          "type": "uint256"
        }
      ],
      "name": "getSexAppeal",
      "outputs": [
        {
          "internalType": "uint32",
          "name": "",
          "type": "uint32"
        }
      ],
      "stateMutability": "pure",
      "type": "function"
    },
    {
      "inputs": [
        {
          "internalType": "uint256",
          "name": "char",
          "type": "uint256"
        }
      ],
      "name": "getUmfh",
      "outputs": [
        {
          "internalType": "uint32",
          "name": "",
          "type": "uint32"
        }
      ],
      "stateMutability": "pure",
      "type": "function"
    },
    {
      "inputs": [
        {
          "internalType": "uint256",
          "name": "char",
          "type": "uint256"
        }
      ],
      "name": "getWeirdness",
      "outputs": [
        {
          "internalType": "uint32",
          "name": "",
          "type": "uint32"
        }
      ],
      "stateMutability": "pure",
      "type": "function"
    },
    {
      "inputs": [
        {
          "internalType": "uint256",
          "name": "r",
          "type": "uint256"
        }
      ],
      "name": "setRandom",
      "outputs": [],
      "stateMutability": "nonpayable",
      "type": "function"
    }
  ],
  "bytecode": "0x608060405234801561001057600080fd5b50610af8806100206000396000f3fe6080604052600436106100865760003560e01c8063b3c5d0ff11610059578063b3c5d0ff14610147578063b8860c8914610184578063d243ddaf146101c1578063d35c2108146101fe578063e966c7d01461021a57610086565b806302e4af011461008b57806347327ae3146100b65780637010e874146100f3578063729e7cf61461011e575b600080fd5b34801561009757600080fd5b506100a0610257565b6040516100ad9190610658565b60405180910390f35b3480156100c257600080fd5b506100dd60048036038101906100d891906106a4565b610261565b6040516100ea91906106f0565b60405180910390f35b3480156100ff57600080fd5b50610108610272565b60405161011591906107c9565b60405180910390f35b34801561012a57600080fd5b50610145600480360381019061014091906106a4565b610306565b005b34801561015357600080fd5b5061016e600480360381019061016991906106a4565b610310565b60405161017b91906106f0565b60405180910390f35b34801561019057600080fd5b506101ab60048036038101906101a691906106a4565b610321565b6040516101b891906106f0565b60405180910390f35b3480156101cd57600080fd5b506101e860048036038101906101e391906106a4565b610332565b6040516101f591906106f0565b60405180910390f35b61021860048036038101906102139190610810565b610343565b005b34801561022657600080fd5b50610241600480360381019061023c91906106a4565b61062e565b60405161024e91906106f0565b60405180910390f35b6000600154905090565b6000601f600283901c169050919050565b60606000803373ffffffffffffffffffffffffffffffffffffffff1673ffffffffffffffffffffffffffffffffffffffff1681526020019081526020016000208054806020026020016040519081016040528092919081815260200182805480156102fc57602002820191906000526020600020905b8154815260200190600101908083116102e8575b5050505050905090565b8060018190555050565b6000601f600c83901c169050919050565b6000601f600783901c169050919050565b6000601f601183901c169050919050565b66b1a2bc2ec50000341161038c576040517f08c379a00000000000000000000000000000000000000000000000000000000081526004016103839061089a565b60405180910390fd5b60018160028111156103a1576103a06108ba565b5b14156103f3576709935f581f0500003410156103f2576040517f08c379a00000000000000000000000000000000000000000000000000000000081526004016103e990610935565b60405180910390fd5b5b6000600567ffffffffffffffff8111156104105761040f610955565b5b60405190808252806020026020018201604052801561043e5781602001602082028036833780820191505090505b50905060028160008151811061045757610456610984565b5b60200260200101818152505060078160018151811061047957610478610984565b5b602002602001018181525050600c8160028151811061049b5761049a610984565b5b6020026020010181815250506011816003815181106104bd576104bc610984565b5b6020026020010181815250506016816004815181106104df576104de610984565b5b6020026020010181815250506000600590506000836002811115610506576105056108ba565b5b90505b600082610514610257565b61051e91906109e2565b90506000600184600d6105319190610a42565b610539610257565b61054391906109e2565b61054d9190610a42565b905084828151811061056257610561610984565b5b602002602001015181901b83179250838061057c90610a98565b94505084848151811061059257610591610984565b5b60200260200101518583815181106105ad576105ac610984565b5b602002602001018181525050505060008211610509576000803373ffffffffffffffffffffffffffffffffffffffff1673ffffffffffffffffffffffffffffffffffffffff16815260200190815260200160002081908060018154018082558091505060019003906000526020600020016000909190919091505550505050565b6000601f601683901c169050919050565b6000819050919050565b6106528161063f565b82525050565b600060208201905061066d6000830184610649565b92915050565b600080fd5b6106818161063f565b811461068c57600080fd5b50565b60008135905061069e81610678565b92915050565b6000602082840312156106ba576106b9610673565b5b60006106c88482850161068f565b91505092915050565b600063ffffffff82169050919050565b6106ea816106d1565b82525050565b600060208201905061070560008301846106e1565b92915050565b600081519050919050565b600082825260208201905092915050565b6000819050602082019050919050565b6107408161063f565b82525050565b60006107528383610737565b60208301905092915050565b6000602082019050919050565b60006107768261070b565b6107808185610716565b935061078b83610727565b8060005b838110156107bc5781516107a38882610746565b97506107ae8361075e565b92505060018101905061078f565b5085935050505092915050565b600060208201905081810360008301526107e3818461076b565b905092915050565b600381106107f857600080fd5b50565b60008135905061080a816107eb565b92915050565b60006020828403121561082657610825610673565b5b6000610834848285016107fb565b91505092915050565b600082825260208201905092915050565b7f53656e64206d6f7265206d6f6e6579202c206269746368000000000000000000600082015250565b600061088460178361083d565b915061088f8261084e565b602082019050919050565b600060208201905081810360008301526108b381610877565b9050919050565b7f4e487b7100000000000000000000000000000000000000000000000000000000600052602160045260246000fd5b7f5265616c6c79204d6174657269616c204777726f6c3f00000000000000000000600082015250565b600061091f60168361083d565b915061092a826108e9565b602082019050919050565b6000602082019050818103600083015261094e81610912565b9050919050565b7f4e487b7100000000000000000000000000000000000000000000000000000000600052604160045260246000fd5b7f4e487b7100000000000000000000000000000000000000000000000000000000600052603260045260246000fd5b7f4e487b7100000000000000000000000000000000000000000000000000000000600052601260045260246000fd5b60006109ed8261063f565b91506109f88361063f565b925082610a0857610a076109b3565b5b828206905092915050565b7f4e487b7100000000000000000000000000000000000000000000000000000000600052601160045260246000fd5b6000610a4d8261063f565b9150610a588361063f565b9250827fffffffffffffffffffffffffffffffffffffffffffffffffffffffffffffffff03821115610a8d57610a8c610a13565b5b828201905092915050565b6000610aa38261063f565b91506000821415610ab757610ab6610a13565b5b60018203905091905056fea2646970667358221220060c4c60b21bdf8d764ceae5c66eeecc3d8ef45ccdc435cd55d49f70f56fed1764736f6c634300080a0033",
  "linkReferences": {},
  "deployedLinkReferences": {}
}