{
  "_format": "hh-sol-artifact-1",
  "contractName": "TestBabyNFT",
  "sourceName": "contracts/TestBNFT.sol",
  "abi": [
    {
      "inputs": [
        {
          "internalType": "enum BabyNFT.Class",
          "name": "class",
          "type": "uint8"
        }
      ],
      "name": "createChar",
      "outputs": [],
      "stateMutability": "payable",
      "type": "function"
    },
    {
      "inputs": [],
      "name": "generateRandom",
      "outputs": [
        {
          "internalType": "uint256",
          "name": "",
          "type": "uint256"
        }
      ],
      "stateMutability": "view",
      "type": "function"
    },
    {
      "inputs": [],
      "name": "getChars",
      "outputs": [
        {
          "internalType": "uint256[]",
          "name": "",
          "type": "uint256[]"
        }
      ],
      "stateMutability": "view",
      "type": "function"
    },
    {
      "inputs": [
        {
          "internalType": "uint256",
          "name": "char",
          "type": "uint256"
        }
      ],
      "name": "getCoolness",
      "outputs": [
        {
          "internalType": "uint32",
          "name": "",
          "type": "uint32"
        }
      ],
      "stateMutability": "pure",
      "type": "function"
    },
    {
      "inputs": [
        {
          "internalType": "uint256",
          "name": "char",
          "type": "uint256"
        }
      ],
      "name": "getGreed",
      "outputs": [
        {
          "internalType": "uint32",
          "name": "",
          "type": "uint32"
        }
      ],
      "stateMutability": "pure",
      "type": "function"
    },
    {
      "inputs": [
        {
          "internalType": "uint256",
          "name": "char",
          "type": "uint256"
        }
      ],
      "name": "getSexAppeal",
      "outputs": [
        {
          "internalType": "uint32",
          "name": "",
          "type": "uint32"
        }
      ],
      "stateMutability": "pure",
      "type": "function"
    },
    {
      "inputs": [
        {
          "internalType": "uint256",
          "name": "char",
          "type": "uint256"
        }
      ],
      "name": "getUmfh",
      "outputs": [
        {
          "internalType": "uint32",
          "name": "",
          "type": "uint32"
        }
      ],
      "stateMutability": "pure",
      "type": "function"
    },
    {
      "inputs": [
        {
          "internalType": "uint256",
          "name": "char",
          "type": "uint256"
        }
      ],
      "name": "getWeirdness",
      "outputs": [
        {
          "internalType": "uint32",
          "name": "",
          "type": "uint32"
        }
      ],
      "stateMutability": "pure",
      "type": "function"
    },
    {
      "inputs": [
        {
          "internalType": "uint256",
          "name": "r",
          "type": "uint256"
        }
      ],
      "name": "setRandom",
      "outputs": [],
      "stateMutability": "nonpayable",
      "type": "function"
    }
  ],
  "bytecode": "0x608060405234801561001057600080fd5b50610a27806100206000396000f3fe6080604052600436106100865760003560e01c8063b3c5d0ff11610059578063b3c5d0ff14610147578063b8860c8914610184578063d243ddaf146101c1578063d35c2108146101fe578063e966c7d01461021a57610086565b806302e4af011461008b57806347327ae3146100b65780637010e874146100f3578063729e7cf61461011e575b600080fd5b34801561009757600080fd5b506100a0610257565b6040516100ad91906105f3565b60405180910390f35b3480156100c257600080fd5b506100dd60048036038101906100d8919061063f565b610261565b6040516100ea919061068b565b60405180910390f35b3480156100ff57600080fd5b50610108610272565b6040516101159190610764565b60405180910390f35b34801561012a57600080fd5b506101456004803603810190610140919061063f565b610306565b005b34801561015357600080fd5b5061016e6004803603810190610169919061063f565b610310565b60405161017b919061068b565b60405180910390f35b34801561019057600080fd5b506101ab60048036038101906101a6919061063f565b610321565b6040516101b8919061068b565b60405180910390f35b3480156101cd57600080fd5b506101e860048036038101906101e3919061063f565b610332565b6040516101f5919061068b565b60405180910390f35b610218600480360381019061021391906107ab565b610343565b005b34801561022657600080fd5b50610241600480360381019061023c919061063f565b6105c9565b60405161024e919061068b565b60405180910390f35b6000600154905090565b6000601f600283901c169050919050565b60606000803373ffffffffffffffffffffffffffffffffffffffff1673ffffffffffffffffffffffffffffffffffffffff1681526020019081526020016000208054806020026020016040519081016040528092919081815260200182805480156102fc57602002820191906000526020600020905b8154815260200190600101908083116102e8575b5050505050905090565b8060018190555050565b6000601f600c83901c169050919050565b6000601f600783901c169050919050565b6000601f601183901c169050919050565b6709935f581f05000034101561038e576040517f08c379a000000000000000000000000000000000000000000000000000000000815260040161038590610835565b60405180910390fd5b6000600567ffffffffffffffff8111156103ab576103aa610855565b5b6040519080825280602002602001820160405280156103d95781602001602082028036833780820191505090505b5090506002816000815181106103f2576103f1610884565b5b60200260200101818152505060078160018151811061041457610413610884565b5b602002602001018181525050600c8160028151811061043657610435610884565b5b60200260200101818152505060118160038151811061045857610457610884565b5b60200260200101818152505060168160048151811061047a57610479610884565b5b60200260200101818152505060006005905060008360028111156104a1576104a06108b3565b5b90505b6000826104af610257565b6104b99190610911565b90506000600184600d6104cc9190610971565b6104d4610257565b6104de9190610911565b6104e89190610971565b90508482815181106104fd576104fc610884565b5b602002602001015181901b831792508380610517906109c7565b94505084848151811061052d5761052c610884565b5b602002602001015185838151811061054857610547610884565b5b6020026020010181815250505050600082116104a4576000803373ffffffffffffffffffffffffffffffffffffffff1673ffffffffffffffffffffffffffffffffffffffff16815260200190815260200160002081908060018154018082558091505060019003906000526020600020016000909190919091505550505050565b6000601f601683901c169050919050565b6000819050919050565b6105ed816105da565b82525050565b600060208201905061060860008301846105e4565b92915050565b600080fd5b61061c816105da565b811461062757600080fd5b50565b60008135905061063981610613565b92915050565b6000602082840312156106555761065461060e565b5b60006106638482850161062a565b91505092915050565b600063ffffffff82169050919050565b6106858161066c565b82525050565b60006020820190506106a0600083018461067c565b92915050565b600081519050919050565b600082825260208201905092915050565b6000819050602082019050919050565b6106db816105da565b82525050565b60006106ed83836106d2565b60208301905092915050565b6000602082019050919050565b6000610711826106a6565b61071b81856106b1565b9350610726836106c2565b8060005b8381101561075757815161073e88826106e1565b9750610749836106f9565b92505060018101905061072a565b5085935050505092915050565b6000602082019050818103600083015261077e8184610706565b905092915050565b6003811061079357600080fd5b50565b6000813590506107a581610786565b92915050565b6000602082840312156107c1576107c061060e565b5b60006107cf84828501610796565b91505092915050565b600082825260208201905092915050565b7f53656e64206d6f7265206d6f6e6579202c206269746368000000000000000000600082015250565b600061081f6017836107d8565b915061082a826107e9565b602082019050919050565b6000602082019050818103600083015261084e81610812565b9050919050565b7f4e487b7100000000000000000000000000000000000000000000000000000000600052604160045260246000fd5b7f4e487b7100000000000000000000000000000000000000000000000000000000600052603260045260246000fd5b7f4e487b7100000000000000000000000000000000000000000000000000000000600052602160045260246000fd5b7f4e487b7100000000000000000000000000000000000000000000000000000000600052601260045260246000fd5b600061091c826105da565b9150610927836105da565b925082610937576109366108e2565b5b828206905092915050565b7f4e487b7100000000000000000000000000000000000000000000000000000000600052601160045260246000fd5b600061097c826105da565b9150610987836105da565b9250827fffffffffffffffffffffffffffffffffffffffffffffffffffffffffffffffff038211156109bc576109bb610942565b5b828201905092915050565b60006109d2826105da565b915060008214156109e6576109e5610942565b5b60018203905091905056fea2646970667358221220fd02b018ecc2e5e2cc837d033f8ff2e01a9eca2e0832b2a860d23584fb44d56664736f6c634300080a0033",
  "linkReferences": {},
  "deployedLinkReferences": {}
}